{
  "contractName": "DistributorContract",
  "abi": [
    {
      "inputs": [
        {
          "internalType": "address",
          "name": "_address",
          "type": "address"
        }
      ],
      "payable": false,
      "stateMutability": "nonpayable",
      "type": "constructor"
    },
    {
      "constant": true,
      "inputs": [
        {
          "internalType": "uint256",
          "name": "",
          "type": "uint256"
        }
      ],
      "name": "distributorAccounts",
      "outputs": [
        {
          "internalType": "address",
          "name": "",
          "type": "address"
        }
      ],
      "payable": false,
      "stateMutability": "view",
      "type": "function"
    },
    {
      "constant": true,
      "inputs": [
        {
          "internalType": "address",
          "name": "",
          "type": "address"
        }
      ],
      "name": "distributors",
      "outputs": [
        {
          "internalType": "string",
          "name": "name",
          "type": "string"
        },
        {
          "internalType": "string",
          "name": "contact",
          "type": "string"
        },
        {
          "internalType": "string",
          "name": "hash",
          "type": "string"
        },
        {
          "internalType": "bool",
          "name": "isEligible",
          "type": "bool"
        }
      ],
      "payable": false,
      "stateMutability": "view",
      "type": "function"
    },
    {
      "constant": true,
      "inputs": [],
      "name": "rc",
      "outputs": [
        {
          "internalType": "contract Roles",
          "name": "",
          "type": "address"
        }
      ],
      "payable": false,
      "stateMutability": "view",
      "type": "function"
    },
    {
      "constant": true,
      "inputs": [
        {
          "internalType": "uint256",
          "name": "",
          "type": "uint256"
        }
      ],
      "name": "unverifiedDistributorAccounts",
      "outputs": [
        {
          "internalType": "address",
          "name": "",
          "type": "address"
        }
      ],
      "payable": false,
      "stateMutability": "view",
      "type": "function"
    },
    {
      "constant": false,
      "inputs": [
        {
          "internalType": "string",
          "name": "_name",
          "type": "string"
        },
        {
          "internalType": "string",
          "name": "_contact",
          "type": "string"
        },
        {
          "internalType": "string",
          "name": "_hash",
          "type": "string"
        }
      ],
      "name": "addDistributor",
      "outputs": [],
      "payable": false,
      "stateMutability": "nonpayable",
      "type": "function"
    },
    {
      "constant": true,
      "inputs": [],
      "name": "getDistributors",
      "outputs": [
        {
          "internalType": "address[]",
          "name": "",
          "type": "address[]"
        }
      ],
      "payable": false,
      "stateMutability": "view",
      "type": "function"
    },
    {
      "constant": true,
      "inputs": [
        {
          "internalType": "address",
          "name": "_address",
          "type": "address"
        }
      ],
      "name": "getDistributor",
      "outputs": [
        {
          "internalType": "string",
          "name": "_name",
          "type": "string"
        },
        {
          "internalType": "string",
          "name": "_contact",
          "type": "string"
        },
        {
          "internalType": "bool",
          "name": "_isEligible",
          "type": "bool"
        }
      ],
      "payable": false,
      "stateMutability": "view",
      "type": "function"
    },
    {
      "constant": true,
      "inputs": [
        {
          "internalType": "address",
          "name": "_address",
          "type": "address"
        }
      ],
      "name": "getHash",
      "outputs": [
        {
          "internalType": "string",
          "name": "",
          "type": "string"
        }
      ],
      "payable": false,
      "stateMutability": "view",
      "type": "function"
    },
    {
      "constant": true,
      "inputs": [],
      "name": "getUnverifiedDistributorAccounts",
      "outputs": [
        {
          "internalType": "address[]",
          "name": "",
          "type": "address[]"
        }
      ],
      "payable": false,
      "stateMutability": "view",
      "type": "function"
    },
    {
      "constant": true,
      "inputs": [],
      "name": "getNumUnverifiedDistributors",
      "outputs": [
        {
          "internalType": "uint256",
          "name": "",
          "type": "uint256"
        }
      ],
      "payable": false,
      "stateMutability": "view",
      "type": "function"
    },
    {
      "constant": true,
      "inputs": [
        {
          "internalType": "uint256",
          "name": "pos",
          "type": "uint256"
        }
      ],
      "name": "getUnverifiedDistributor",
      "outputs": [
        {
          "internalType": "address",
          "name": "",
          "type": "address"
        }
      ],
      "payable": false,
      "stateMutability": "view",
      "type": "function"
    },
    {
      "constant": true,
      "inputs": [],
      "name": "countDistributors",
      "outputs": [
        {
          "internalType": "uint256",
          "name": "",
          "type": "uint256"
        }
      ],
      "payable": false,
      "stateMutability": "view",
      "type": "function"
    },
    {
      "constant": true,
      "inputs": [
        {
          "internalType": "uint256",
          "name": "pos",
          "type": "uint256"
        }
      ],
      "name": "getNumDistributor",
      "outputs": [
        {
          "internalType": "address",
          "name": "",
          "type": "address"
        }
      ],
      "payable": false,
      "stateMutability": "view",
      "type": "function"
    },
    {
      "constant": false,
      "inputs": [
        {
          "internalType": "address",
          "name": "_address",
          "type": "address"
        }
      ],
      "name": "setEligible",
      "outputs": [],
      "payable": false,
      "stateMutability": "nonpayable",
      "type": "function"
    }
  ],
  "bytecode": "0x608060405234801561001057600080fd5b506040516125063803806125068339818101604052602081101561003357600080fd5b8101908080519060200190929190505050806000806101000a81548173ffffffffffffffffffffffffffffffffffffffff021916908373ffffffffffffffffffffffffffffffffffffffff16021790555050612472806100946000396000f3fe608060405234801561001057600080fd5b50600436106100ea5760003560e01c8063993df8c61161008c578063ce4df3af11610066578063ce4df3af1461086b578063f2d4b814146108d9578063f7b1c93614610947578063f904cf0414610965576100ea565b8063993df8c6146103ae578063a5b4da1d146104e2578063cc642784146106cb576100ea565b80631da0b8fc116100c85780631da0b8fc146101c557806345cf2e971461028257806390e87986146102e157806394feebb314610340576100ea565b80630cfc36df146100ef57806312f773321461010d5780631b49e65114610157575b600080fd5b6100f76109a9565b6040518082815260200191505060405180910390f35b6101156109b6565b604051808273ffffffffffffffffffffffffffffffffffffffff1673ffffffffffffffffffffffffffffffffffffffff16815260200191505060405180910390f35b6101836004803603602081101561016d57600080fd5b81019080803590602001909291905050506109db565b604051808273ffffffffffffffffffffffffffffffffffffffff1673ffffffffffffffffffffffffffffffffffffffff16815260200191505060405180910390f35b610207600480360360208110156101db57600080fd5b81019080803573ffffffffffffffffffffffffffffffffffffffff169060200190929190505050610a17565b6040518080602001828103825283818151815260200191508051906020019080838360005b8381101561024757808201518184015260208101905061022c565b50505050905090810190601f1680156102745780820380516001836020036101000a031916815260200191505b509250505060405180910390f35b61028a610ccc565b6040518080602001828103825283818151815260200191508051906020019060200280838360005b838110156102cd5780820151818401526020810190506102b2565b505050509050019250505060405180910390f35b6102e9610f2b565b6040518080602001828103825283818151815260200191508051906020019060200280838360005b8381101561032c578082015181840152602081019050610311565b505050509050019250505060405180910390f35b61036c6004803603602081101561035657600080fd5b8101908080359060200190929190505050610fb9565b604051808273ffffffffffffffffffffffffffffffffffffffff1673ffffffffffffffffffffffffffffffffffffffff16815260200191505060405180910390f35b6103f0600480360360208110156103c457600080fd5b81019080803573ffffffffffffffffffffffffffffffffffffffff1690602001909291905050506111cb565b60405180806020018060200184151515158152602001838103835286818151815260200191508051906020019080838360005b8381101561043e578082015181840152602081019050610423565b50505050905090810190601f16801561046b5780820380516001836020036101000a031916815260200191505b50838103825285818151815260200191508051906020019080838360005b838110156104a4578082015181840152602081019050610489565b50505050905090810190601f1680156104d15780820380516001836020036101000a031916815260200191505b509550505050505060405180910390f35b6106c9600480360360608110156104f857600080fd5b810190808035906020019064010000000081111561051557600080fd5b82018360208201111561052757600080fd5b8035906020019184600183028401116401000000008311171561054957600080fd5b91908080601f016020809104026020016040519081016040528093929190818152602001838380828437600081840152601f19601f820116905080830192505050505050509192919290803590602001906401000000008111156105ac57600080fd5b8201836020820111156105be57600080fd5b803590602001918460018302840111640100000000831117156105e057600080fd5b91908080601f016020809104026020016040519081016040528093929190818152602001838380828437600081840152601f19601f8201169050808301925050505050505091929192908035906020019064010000000081111561064357600080fd5b82018360208201111561065557600080fd5b8035906020019184600183028401116401000000008311171561067757600080fd5b91908080601f016020809104026020016040519081016040528093929190818152602001838380828437600081840152601f19601f82011690508083019250505050505050919291929050505061176f565b005b61070d600480360360208110156106e157600080fd5b81019080803573ffffffffffffffffffffffffffffffffffffffff169060200190929190505050611886565b6040518080602001806020018060200185151515158152602001848103845288818151815260200191508051906020019080838360005b8381101561075f578082015181840152602081019050610744565b50505050905090810190601f16801561078c5780820380516001836020036101000a031916815260200191505b50848103835287818151815260200191508051906020019080838360005b838110156107c55780820151818401526020810190506107aa565b50505050905090810190601f1680156107f25780820380516001836020036101000a031916815260200191505b50848103825286818151815260200191508051906020019080838360005b8381101561082b578082015181840152602081019050610810565b50505050905090810190601f1680156108585780820380516001836020036101000a031916815260200191505b5097505050505050505060405180910390f35b6108976004803603602081101561088157600080fd5b8101908080359060200190929190505050611a8b565b604051808273ffffffffffffffffffffffffffffffffffffffff1673ffffffffffffffffffffffffffffffffffffffff16815260200191505060405180910390f35b610905600480360360208110156108ef57600080fd5b8101908080359060200190929190505050611acc565b604051808273ffffffffffffffffffffffffffffffffffffffff1673ffffffffffffffffffffffffffffffffffffffff16815260200191505060405180910390f35b61094f611b08565b6040518082815260200191505060405180910390f35b6109a76004803603602081101561097b57600080fd5b81019080803573ffffffffffffffffffffffffffffffffffffffff169060200190929190505050611ce6565b005b6000600280549050905090565b6000809054906101000a900473ffffffffffffffffffffffffffffffffffffffff1681565b600281815481106109e857fe5b906000526020600020016000915054906101000a900473ffffffffffffffffffffffffffffffffffffffff1681565b60606000809054906101000a900473ffffffffffffffffffffffffffffffffffffffff1673ffffffffffffffffffffffffffffffffffffffff166346fb5b9c6040518163ffffffff1660e01b815260040160206040518083038186803b158015610a8057600080fd5b505afa158015610a94573d6000803e3d6000fd5b505050506040513d6020811015610aaa57600080fd5b81019080805190602001909291905050506000809054906101000a900473ffffffffffffffffffffffffffffffffffffffff1673ffffffffffffffffffffffffffffffffffffffff166344276733326040518263ffffffff1660e01b8152600401808273ffffffffffffffffffffffffffffffffffffffff1673ffffffffffffffffffffffffffffffffffffffff16815260200191505060206040518083038186803b158015610b5957600080fd5b505afa158015610b6d573d6000803e3d6000fd5b505050506040513d6020811015610b8357600080fd5b810190808051906020019092919050505014610bea576040517f08c379a000000000000000000000000000000000000000000000000000000000815260040180806020018281038252602481526020018061241a6024913960400191505060405180910390fd5b600160008373ffffffffffffffffffffffffffffffffffffffff1673ffffffffffffffffffffffffffffffffffffffff1681526020019081526020016000206002018054600181600116156101000203166002900480601f016020809104026020016040519081016040528092919081815260200182805460018160011615610100020316600290048015610cc05780601f10610c9557610100808354040283529160200191610cc0565b820191906000526020600020905b815481529060010190602001808311610ca357829003601f168201915b50505050509050919050565b60606000809054906101000a900473ffffffffffffffffffffffffffffffffffffffff1673ffffffffffffffffffffffffffffffffffffffff166346fb5b9c6040518163ffffffff1660e01b815260040160206040518083038186803b158015610d3557600080fd5b505afa158015610d49573d6000803e3d6000fd5b505050506040513d6020811015610d5f57600080fd5b81019080805190602001909291905050506000809054906101000a900473ffffffffffffffffffffffffffffffffffffffff1673ffffffffffffffffffffffffffffffffffffffff166344276733326040518263ffffffff1660e01b8152600401808273ffffffffffffffffffffffffffffffffffffffff1673ffffffffffffffffffffffffffffffffffffffff16815260200191505060206040518083038186803b158015610e0e57600080fd5b505afa158015610e22573d6000803e3d6000fd5b505050506040513d6020811015610e3857600080fd5b810190808051906020019092919050505014610e9f576040517f08c379a000000000000000000000000000000000000000000000000000000000815260040180806020018281038252602481526020018061241a6024913960400191505060405180910390fd5b6003805480602002602001604051908101604052809291908181526020018280548015610f2157602002820191906000526020600020905b8160009054906101000a900473ffffffffffffffffffffffffffffffffffffffff1673ffffffffffffffffffffffffffffffffffffffff1681526020019060010190808311610ed7575b5050505050905090565b60606002805480602002602001604051908101604052809291908181526020018280548015610faf57602002820191906000526020600020905b8160009054906101000a900473ffffffffffffffffffffffffffffffffffffffff1673ffffffffffffffffffffffffffffffffffffffff1681526020019060010190808311610f65575b5050505050905090565b60008060009054906101000a900473ffffffffffffffffffffffffffffffffffffffff1673ffffffffffffffffffffffffffffffffffffffff166346fb5b9c6040518163ffffffff1660e01b815260040160206040518083038186803b15801561102257600080fd5b505afa158015611036573d6000803e3d6000fd5b505050506040513d602081101561104c57600080fd5b81019080805190602001909291905050506000809054906101000a900473ffffffffffffffffffffffffffffffffffffffff1673ffffffffffffffffffffffffffffffffffffffff166344276733326040518263ffffffff1660e01b8152600401808273ffffffffffffffffffffffffffffffffffffffff1673ffffffffffffffffffffffffffffffffffffffff16815260200191505060206040518083038186803b1580156110fb57600080fd5b505afa15801561110f573d6000803e3d6000fd5b505050506040513d602081101561112557600080fd5b81019080805190602001909291905050501461118c576040517f08c379a000000000000000000000000000000000000000000000000000000000815260040180806020018281038252602481526020018061241a6024913960400191505060405180910390fd5b6003828154811061119957fe5b9060005260206000200160009054906101000a900473ffffffffffffffffffffffffffffffffffffffff169050919050565b60608060008360011515600160008373ffffffffffffffffffffffffffffffffffffffff1673ffffffffffffffffffffffffffffffffffffffff16815260200190815260200160002060030160009054906101000a900460ff16151514806114e3575060001515611325600160008473ffffffffffffffffffffffffffffffffffffffff1673ffffffffffffffffffffffffffffffffffffffff1681526020019081526020016000206002018054600181600116156101000203166002900480601f01602080910402602001604051908101604052809291908181526020018280546001816001161561010002031660029004801561130b5780601f106112e05761010080835404028352916020019161130b565b820191906000526020600020905b8154815290600101906020018083116112ee57829003601f168201915b505050505060405180602001604052806000815250612259565b15151480156114e257503273ffffffffffffffffffffffffffffffffffffffff168173ffffffffffffffffffffffffffffffffffffffff1614806114e157506000809054906101000a900473ffffffffffffffffffffffffffffffffffffffff1673ffffffffffffffffffffffffffffffffffffffff166346fb5b9c6040518163ffffffff1660e01b815260040160206040518083038186803b1580156113cb57600080fd5b505afa1580156113df573d6000803e3d6000fd5b505050506040513d60208110156113f557600080fd5b81019080805190602001909291905050506000809054906101000a900473ffffffffffffffffffffffffffffffffffffffff1673ffffffffffffffffffffffffffffffffffffffff166344276733326040518263ffffffff1660e01b8152600401808273ffffffffffffffffffffffffffffffffffffffff1673ffffffffffffffffffffffffffffffffffffffff16815260200191505060206040518083038186803b1580156114a457600080fd5b505afa1580156114b8573d6000803e3d6000fd5b505050506040513d60208110156114ce57600080fd5b8101908080519060200190929190505050145b5b5b611555576040517f08c379a00000000000000000000000000000000000000000000000000000000081526004018080602001828103825260128152602001807f556e617574686f7269736564206163746f72000000000000000000000000000081525060200191505060405180910390fd5b600160008673ffffffffffffffffffffffffffffffffffffffff1673ffffffffffffffffffffffffffffffffffffffff168152602001908152602001600020600001600160008773ffffffffffffffffffffffffffffffffffffffff1673ffffffffffffffffffffffffffffffffffffffff168152602001908152602001600020600101600160008873ffffffffffffffffffffffffffffffffffffffff1673ffffffffffffffffffffffffffffffffffffffff16815260200190815260200160002060030160009054906101000a900460ff16828054600181600116156101000203166002900480601f0160208091040260200160405190810160405280929190818152602001828054600181600116156101000203166002900480156116be5780601f10611693576101008083540402835291602001916116be565b820191906000526020600020905b8154815290600101906020018083116116a157829003601f168201915b50505050509250818054600181600116156101000203166002900480601f01602080910402602001604051908101604052809291908181526020018280546001816001161561010002031660029004801561175a5780601f1061172f5761010080835404028352916020019161175a565b820191906000526020600020905b81548152906001019060200180831161173d57829003601f168201915b50505050509150935093509350509193909250565b6000600160003273ffffffffffffffffffffffffffffffffffffffff1673ffffffffffffffffffffffffffffffffffffffff1681526020019081526020016000209050838160000190805190602001906117ca929190612348565b50828160010190805190602001906117e3929190612348565b50818160020190805190602001906117fc929190612348565b5060008160030160006101000a81548160ff02191690831515021790555060033290806001815401808255809150509060018203906000526020600020016000909192909190916101000a81548173ffffffffffffffffffffffffffffffffffffffff021916908373ffffffffffffffffffffffffffffffffffffffff1602179055505050505050565b6001602052806000526040600020600091509050806000018054600181600116156101000203166002900480601f0160208091040260200160405190810160405280929190818152602001828054600181600116156101000203166002900480156119325780601f1061190757610100808354040283529160200191611932565b820191906000526020600020905b81548152906001019060200180831161191557829003601f168201915b505050505090806001018054600181600116156101000203166002900480601f0160208091040260200160405190810160405280929190818152602001828054600181600116156101000203166002900480156119d05780601f106119a5576101008083540402835291602001916119d0565b820191906000526020600020905b8154815290600101906020018083116119b357829003601f168201915b505050505090806002018054600181600116156101000203166002900480601f016020809104026020016040519081016040528092919081815260200182805460018160011615610100020316600290048015611a6e5780601f10611a4357610100808354040283529160200191611a6e565b820191906000526020600020905b815481529060010190602001808311611a5157829003601f168201915b5050505050908060030160009054906101000a900460ff16905084565b600060028281548110611a9a57fe5b9060005260206000200160009054906101000a900473ffffffffffffffffffffffffffffffffffffffff169050919050565b60038181548110611ad957fe5b906000526020600020016000915054906101000a900473ffffffffffffffffffffffffffffffffffffffff1681565b60008060009054906101000a900473ffffffffffffffffffffffffffffffffffffffff1673ffffffffffffffffffffffffffffffffffffffff166346fb5b9c6040518163ffffffff1660e01b815260040160206040518083038186803b158015611b7157600080fd5b505afa158015611b85573d6000803e3d6000fd5b505050506040513d6020811015611b9b57600080fd5b81019080805190602001909291905050506000809054906101000a900473ffffffffffffffffffffffffffffffffffffffff1673ffffffffffffffffffffffffffffffffffffffff166344276733326040518263ffffffff1660e01b8152600401808273ffffffffffffffffffffffffffffffffffffffff1673ffffffffffffffffffffffffffffffffffffffff16815260200191505060206040518083038186803b158015611c4a57600080fd5b505afa158015611c5e573d6000803e3d6000fd5b505050506040513d6020811015611c7457600080fd5b810190808051906020019092919050505014611cdb576040517f08c379a000000000000000000000000000000000000000000000000000000000815260040180806020018281038252602481526020018061241a6024913960400191505060405180910390fd5b600380549050905090565b6000809054906101000a900473ffffffffffffffffffffffffffffffffffffffff1673ffffffffffffffffffffffffffffffffffffffff166346fb5b9c6040518163ffffffff1660e01b815260040160206040518083038186803b158015611d4d57600080fd5b505afa158015611d61573d6000803e3d6000fd5b505050506040513d6020811015611d7757600080fd5b81019080805190602001909291905050506000809054906101000a900473ffffffffffffffffffffffffffffffffffffffff1673ffffffffffffffffffffffffffffffffffffffff166344276733326040518263ffffffff1660e01b8152600401808273ffffffffffffffffffffffffffffffffffffffff1673ffffffffffffffffffffffffffffffffffffffff16815260200191505060206040518083038186803b158015611e2657600080fd5b505afa158015611e3a573d6000803e3d6000fd5b505050506040513d6020811015611e5057600080fd5b810190808051906020019092919050505014611eb7576040517f08c379a000000000000000000000000000000000000000000000000000000000815260040180806020018281038252602481526020018061241a6024913960400191505060405180910390fd5b60008090505b600380549050811015612255578173ffffffffffffffffffffffffffffffffffffffff1660038281548110611eee57fe5b9060005260206000200160009054906101000a900473ffffffffffffffffffffffffffffffffffffffff1673ffffffffffffffffffffffffffffffffffffffff16141561224857600360016003805490500381548110611f4a57fe5b9060005260206000200160009054906101000a900473ffffffffffffffffffffffffffffffffffffffff1660038281548110611f8257fe5b9060005260206000200160006101000a81548173ffffffffffffffffffffffffffffffffffffffff021916908373ffffffffffffffffffffffffffffffffffffffff160217905550600360016003805490500381548110611fdf57fe5b9060005260206000200160006101000a81549073ffffffffffffffffffffffffffffffffffffffff0219169055600380548091906001900361202191906123c8565b5060018060008473ffffffffffffffffffffffffffffffffffffffff1673ffffffffffffffffffffffffffffffffffffffff16815260200190815260200160002060030160006101000a81548160ff02191690831515021790555060028290806001815401808255809150509060018203906000526020600020016000909192909190916101000a81548173ffffffffffffffffffffffffffffffffffffffff021916908373ffffffffffffffffffffffffffffffffffffffff160217905550506000809054906101000a900473ffffffffffffffffffffffffffffffffffffffff1673ffffffffffffffffffffffffffffffffffffffff16637fde1c8a836000809054906101000a900473ffffffffffffffffffffffffffffffffffffffff1673ffffffffffffffffffffffffffffffffffffffff1663121da33c6040518163ffffffff1660e01b815260040160206040518083038186803b15801561218757600080fd5b505afa15801561219b573d6000803e3d6000fd5b505050506040513d60208110156121b157600080fd5b81019080805190602001909291905050506040518363ffffffff1660e01b8152600401808373ffffffffffffffffffffffffffffffffffffffff1673ffffffffffffffffffffffffffffffffffffffff16815260200182815260200192505050600060405180830381600087803b15801561222b57600080fd5b505af115801561223f573d6000803e3d6000fd5b50505050612255565b8080600101915050611ebd565b5050565b6000816040516020018082805190602001908083835b60208310612292578051825260208201915060208101905060208303925061226f565b6001836020036101000a03801982511681845116808217855250505050505090500191505060405160208183030381529060405280519060200120836040516020018082805190602001908083835b6020831061230457805182526020820191506020810190506020830392506122e1565b6001836020036101000a0380198251168184511680821785525050505050509050019150506040516020818303038152906040528051906020012014905092915050565b828054600181600116156101000203166002900490600052602060002090601f016020900481019282601f1061238957805160ff19168380011785556123b7565b828001600101855582156123b7579182015b828111156123b657825182559160200191906001019061239b565b5b5090506123c491906123f4565b5090565b8154818355818111156123ef578183600052602060002091820191016123ee91906123f4565b5b505050565b61241691905b808211156124125760008160009055506001016123fa565b5090565b9056fe4f6e6c7920676f7665726e6d656e74206f6666696369616c732063616e20616363657373a265627a7a72315820f1f9a4180466e42e2ec6bbc93c1dd38e58c0aa55011177157d7969af5527d41164736f6c63430005100032",
  "source": "// SPDX-License-Identifier: GPL-3.0\r\npragma solidity ^0.5.16;\r\nimport \"./Roles.sol\";\r\nimport \"./HelperMethods.sol\";\r\n\r\ncontract DistributorContract {\r\n    Roles public rc;\r\n\r\n    constructor(address _address) public {\r\n        rc = Roles(_address);\r\n    }\r\n\r\n    struct Distributor {\r\n        string name;\r\n        string contact;\r\n        string hash;\r\n        bool isEligible;\r\n    }\r\n\r\n    mapping(address => Distributor) public distributors;\r\n    address[] public distributorAccounts;\r\n    address[] public unverifiedDistributorAccounts;\r\n\r\n    modifier onlyGovernmentOfficial() {\r\n        require(\r\n            rc.getRole(tx.origin) == rc.governmentID(),\r\n            \"Only government officials can access\"\r\n        );\r\n        _;\r\n    }\r\n\r\n    modifier onlyAuthorisedActors(address _address) {\r\n        require(\r\n            distributors[_address].isEligible == true ||\r\n                (HelperMethods.compareStrings(\r\n                    distributors[_address].hash,\r\n                    \"\"\r\n                ) ==\r\n                    false &&\r\n                    (_address == tx.origin ||\r\n                        rc.getRole(tx.origin) == rc.governmentID())),\r\n            \"Unauthorised actor\"\r\n        );\r\n        _;\r\n    }\r\n\r\n    function addDistributor(\r\n        string memory _name,\r\n        string memory _contact,\r\n        string memory _hash\r\n    ) public {\r\n        Distributor storage distributor = distributors[tx.origin];\r\n        distributor.name = _name;\r\n        distributor.contact = _contact;\r\n        distributor.hash = _hash;\r\n        distributor.isEligible = false;\r\n\r\n        unverifiedDistributorAccounts.push(tx.origin);\r\n    }\r\n\r\n    function getDistributors() public view returns (address[] memory) {\r\n        return distributorAccounts;\r\n    }\r\n\r\n    function getDistributor(\r\n        address _address\r\n    )\r\n        public\r\n        view\r\n        onlyAuthorisedActors(_address)\r\n        returns (string memory _name, string memory _contact, bool _isEligible)\r\n    {\r\n        return (\r\n            distributors[_address].name,\r\n            distributors[_address].contact,\r\n            distributors[_address].isEligible\r\n        );\r\n    }\r\n\r\n    function getHash(\r\n        address _address\r\n    ) public view onlyGovernmentOfficial returns (string memory) {\r\n        return distributors[_address].hash;\r\n    }\r\n\r\n    function getUnverifiedDistributorAccounts()\r\n        public\r\n        view\r\n        onlyGovernmentOfficial\r\n        returns (address[] memory)\r\n    {\r\n        return unverifiedDistributorAccounts;\r\n    }\r\n\r\n    function getNumUnverifiedDistributors()\r\n        public\r\n        view\r\n        onlyGovernmentOfficial\r\n        returns (uint256)\r\n    {\r\n        return unverifiedDistributorAccounts.length;\r\n    }\r\n\r\n    function getUnverifiedDistributor(\r\n        uint256 pos\r\n    ) public view onlyGovernmentOfficial returns (address) {\r\n        return unverifiedDistributorAccounts[pos];\r\n    }\r\n\r\n    function countDistributors() public view returns (uint256) {\r\n        return distributorAccounts.length;\r\n    }\r\n\r\n    function getNumDistributor(uint256 pos) public view returns (address) {\r\n        return distributorAccounts[pos];\r\n    }\r\n\r\n    function setEligible(address _address) public onlyGovernmentOfficial {\r\n        for (uint256 i = 0; i < unverifiedDistributorAccounts.length; i++) {\r\n            if (unverifiedDistributorAccounts[i] == _address) {\r\n                unverifiedDistributorAccounts[\r\n                    i\r\n                ] = unverifiedDistributorAccounts[\r\n                    unverifiedDistributorAccounts.length - 1\r\n                ];\r\n                delete unverifiedDistributorAccounts[\r\n                    unverifiedDistributorAccounts.length - 1\r\n                ];\r\n                unverifiedDistributorAccounts.length--;\r\n                distributors[_address].isEligible = true;\r\n                distributorAccounts.push(_address);\r\n                rc.addRole(_address, rc.distributorRoleID());\r\n                break;\r\n            }\r\n        }\r\n    }\r\n}\r\n",
  "sourcePath": "D:\\btp\\Mobifind\\src\\contracts\\DistributorContract.sol",
  "compiler": {
    "name": "solc",
    "version": "0.5.16+commit.9c3226ce.Emscripten.clang"
  },
  "schemaVersion": "3.4.16",
  "updatedAt": "2024-05-07T07:39:12.961Z",
  "networkType": "ethereum",
  "devdoc": {
    "methods": {}
  },
  "userdoc": {
    "methods": {}
  }
}