{
  "contractName": "RetailerContract",
  "abi": [
    {
      "inputs": [
        {
          "internalType": "address",
          "name": "_address",
          "type": "address"
        }
      ],
      "payable": false,
      "stateMutability": "nonpayable",
      "type": "constructor"
    },
    {
      "constant": true,
      "inputs": [],
      "name": "rc",
      "outputs": [
        {
          "internalType": "contract Roles",
          "name": "",
          "type": "address"
        }
      ],
      "payable": false,
      "stateMutability": "view",
      "type": "function"
    },
    {
      "constant": true,
      "inputs": [
        {
          "internalType": "uint256",
          "name": "",
          "type": "uint256"
        }
      ],
      "name": "retailerAccounts",
      "outputs": [
        {
          "internalType": "address",
          "name": "",
          "type": "address"
        }
      ],
      "payable": false,
      "stateMutability": "view",
      "type": "function"
    },
    {
      "constant": true,
      "inputs": [
        {
          "internalType": "address",
          "name": "",
          "type": "address"
        }
      ],
      "name": "retailers",
      "outputs": [
        {
          "internalType": "string",
          "name": "name",
          "type": "string"
        },
        {
          "internalType": "string",
          "name": "contact",
          "type": "string"
        },
        {
          "internalType": "string",
          "name": "hash",
          "type": "string"
        },
        {
          "internalType": "bool",
          "name": "isEligible",
          "type": "bool"
        }
      ],
      "payable": false,
      "stateMutability": "view",
      "type": "function"
    },
    {
      "constant": true,
      "inputs": [
        {
          "internalType": "uint256",
          "name": "",
          "type": "uint256"
        }
      ],
      "name": "unverifiedRetailerAccounts",
      "outputs": [
        {
          "internalType": "address",
          "name": "",
          "type": "address"
        }
      ],
      "payable": false,
      "stateMutability": "view",
      "type": "function"
    },
    {
      "constant": false,
      "inputs": [
        {
          "internalType": "string",
          "name": "_name",
          "type": "string"
        },
        {
          "internalType": "string",
          "name": "_contact",
          "type": "string"
        },
        {
          "internalType": "string",
          "name": "_hash",
          "type": "string"
        }
      ],
      "name": "addRetailer",
      "outputs": [],
      "payable": false,
      "stateMutability": "nonpayable",
      "type": "function"
    },
    {
      "constant": true,
      "inputs": [
        {
          "internalType": "address",
          "name": "_address",
          "type": "address"
        }
      ],
      "name": "getRetailer",
      "outputs": [
        {
          "internalType": "string",
          "name": "_name",
          "type": "string"
        },
        {
          "internalType": "string",
          "name": "_contact",
          "type": "string"
        },
        {
          "internalType": "bool",
          "name": "_isEligible",
          "type": "bool"
        }
      ],
      "payable": false,
      "stateMutability": "view",
      "type": "function"
    },
    {
      "constant": true,
      "inputs": [],
      "name": "getUnverifiedRetailerAccounts",
      "outputs": [
        {
          "internalType": "address[]",
          "name": "",
          "type": "address[]"
        }
      ],
      "payable": false,
      "stateMutability": "view",
      "type": "function"
    },
    {
      "constant": true,
      "inputs": [],
      "name": "getNumUnverifiedRetailers",
      "outputs": [
        {
          "internalType": "uint256",
          "name": "",
          "type": "uint256"
        }
      ],
      "payable": false,
      "stateMutability": "view",
      "type": "function"
    },
    {
      "constant": true,
      "inputs": [
        {
          "internalType": "uint256",
          "name": "pos",
          "type": "uint256"
        }
      ],
      "name": "getUnverifiedRetailer",
      "outputs": [
        {
          "internalType": "address",
          "name": "",
          "type": "address"
        }
      ],
      "payable": false,
      "stateMutability": "view",
      "type": "function"
    },
    {
      "constant": true,
      "inputs": [],
      "name": "countRetailers",
      "outputs": [
        {
          "internalType": "uint256",
          "name": "",
          "type": "uint256"
        }
      ],
      "payable": false,
      "stateMutability": "view",
      "type": "function"
    },
    {
      "constant": true,
      "inputs": [
        {
          "internalType": "uint256",
          "name": "pos",
          "type": "uint256"
        }
      ],
      "name": "getNumRetailer",
      "outputs": [
        {
          "internalType": "address",
          "name": "",
          "type": "address"
        }
      ],
      "payable": false,
      "stateMutability": "view",
      "type": "function"
    },
    {
      "constant": true,
      "inputs": [
        {
          "internalType": "address",
          "name": "_address",
          "type": "address"
        }
      ],
      "name": "getHash",
      "outputs": [
        {
          "internalType": "string",
          "name": "",
          "type": "string"
        }
      ],
      "payable": false,
      "stateMutability": "view",
      "type": "function"
    },
    {
      "constant": false,
      "inputs": [
        {
          "internalType": "address",
          "name": "_address",
          "type": "address"
        }
      ],
      "name": "setEligible",
      "outputs": [],
      "payable": false,
      "stateMutability": "nonpayable",
      "type": "function"
    }
  ],
  "bytecode": "0x608060405234801561001057600080fd5b506040516123fe3803806123fe8339818101604052602081101561003357600080fd5b8101908080519060200190929190505050806000806101000a81548173ffffffffffffffffffffffffffffffffffffffff021916908373ffffffffffffffffffffffffffffffffffffffff1602179055505061236a806100946000396000f3fe608060405234801561001057600080fd5b50600436106100cf5760003560e01c80639a268f351161008c578063db87929611610066578063db87929614610676578063f4519d891461085f578063f7bca0ef146108cd578063f904cf04146108eb576100cf565b80639a268f351461044a578063d119d575146105ea578063d6e1d4d614610608576100cf565b80630b11b8aa146100d457806312f77332146101425780631da0b8fc1461018c57806354f45e0b146102495780637ca27e3f1461037d578063908f8870146103eb575b600080fd5b610100600480360360208110156100ea57600080fd5b810190808035906020019092919050505061092f565b604051808273ffffffffffffffffffffffffffffffffffffffff1673ffffffffffffffffffffffffffffffffffffffff16815260200191505060405180910390f35b61014a61096b565b604051808273ffffffffffffffffffffffffffffffffffffffff1673ffffffffffffffffffffffffffffffffffffffff16815260200191505060405180910390f35b6101ce600480360360208110156101a257600080fd5b81019080803573ffffffffffffffffffffffffffffffffffffffff169060200190929190505050610990565b6040518080602001828103825283818151815260200191508051906020019080838360005b8381101561020e5780820151818401526020810190506101f3565b50505050905090810190601f16801561023b5780820380516001836020036101000a031916815260200191505b509250505060405180910390f35b61028b6004803603602081101561025f57600080fd5b81019080803573ffffffffffffffffffffffffffffffffffffffff169060200190929190505050610c45565b60405180806020018060200184151515158152602001838103835286818151815260200191508051906020019080838360005b838110156102d95780820151818401526020810190506102be565b50505050905090810190601f1680156103065780820380516001836020036101000a031916815260200191505b50838103825285818151815260200191508051906020019080838360005b8381101561033f578082015181840152602081019050610324565b50505050905090810190601f16801561036c5780820380516001836020036101000a031916815260200191505b509550505050505060405180910390f35b6103a96004803603602081101561039357600080fd5b81019080803590602001909291905050506111e9565b604051808273ffffffffffffffffffffffffffffffffffffffff1673ffffffffffffffffffffffffffffffffffffffff16815260200191505060405180910390f35b6103f36113fb565b6040518080602001828103825283818151815260200191508051906020019060200280838360005b8381101561043657808201518184015260208101905061041b565b505050509050019250505060405180910390f35b61048c6004803603602081101561046057600080fd5b81019080803573ffffffffffffffffffffffffffffffffffffffff16906020019092919050505061165a565b6040518080602001806020018060200185151515158152602001848103845288818151815260200191508051906020019080838360005b838110156104de5780820151818401526020810190506104c3565b50505050905090810190601f16801561050b5780820380516001836020036101000a031916815260200191505b50848103835287818151815260200191508051906020019080838360005b83811015610544578082015181840152602081019050610529565b50505050905090810190601f1680156105715780820380516001836020036101000a031916815260200191505b50848103825286818151815260200191508051906020019080838360005b838110156105aa57808201518184015260208101905061058f565b50505050905090810190601f1680156105d75780820380516001836020036101000a031916815260200191505b5097505050505050505060405180910390f35b6105f261185f565b6040518082815260200191505060405180910390f35b6106346004803603602081101561061e57600080fd5b810190808035906020019092919050505061186c565b604051808273ffffffffffffffffffffffffffffffffffffffff1673ffffffffffffffffffffffffffffffffffffffff16815260200191505060405180910390f35b61085d6004803603606081101561068c57600080fd5b81019080803590602001906401000000008111156106a957600080fd5b8201836020820111156106bb57600080fd5b803590602001918460018302840111640100000000831117156106dd57600080fd5b91908080601f016020809104026020016040519081016040528093929190818152602001838380828437600081840152601f19601f8201169050808301925050505050505091929192908035906020019064010000000081111561074057600080fd5b82018360208201111561075257600080fd5b8035906020019184600183028401116401000000008311171561077457600080fd5b91908080601f016020809104026020016040519081016040528093929190818152602001838380828437600081840152601f19601f820116905080830192505050505050509192919290803590602001906401000000008111156107d757600080fd5b8201836020820111156107e957600080fd5b8035906020019184600183028401116401000000008311171561080b57600080fd5b91908080601f016020809104026020016040519081016040528093929190818152602001838380828437600081840152601f19601f8201169050808301925050505050505091929192905050506118a8565b005b61088b6004803603602081101561087557600080fd5b81019080803590602001909291905050506119bf565b604051808273ffffffffffffffffffffffffffffffffffffffff1673ffffffffffffffffffffffffffffffffffffffff16815260200191505060405180910390f35b6108d5611a00565b6040518082815260200191505060405180910390f35b61092d6004803603602081101561090157600080fd5b81019080803573ffffffffffffffffffffffffffffffffffffffff169060200190929190505050611bde565b005b6002818154811061093c57fe5b906000526020600020016000915054906101000a900473ffffffffffffffffffffffffffffffffffffffff1681565b6000809054906101000a900473ffffffffffffffffffffffffffffffffffffffff1681565b60606000809054906101000a900473ffffffffffffffffffffffffffffffffffffffff1673ffffffffffffffffffffffffffffffffffffffff166346fb5b9c6040518163ffffffff1660e01b815260040160206040518083038186803b1580156109f957600080fd5b505afa158015610a0d573d6000803e3d6000fd5b505050506040513d6020811015610a2357600080fd5b81019080805190602001909291905050506000809054906101000a900473ffffffffffffffffffffffffffffffffffffffff1673ffffffffffffffffffffffffffffffffffffffff166344276733326040518263ffffffff1660e01b8152600401808273ffffffffffffffffffffffffffffffffffffffff1673ffffffffffffffffffffffffffffffffffffffff16815260200191505060206040518083038186803b158015610ad257600080fd5b505afa158015610ae6573d6000803e3d6000fd5b505050506040513d6020811015610afc57600080fd5b810190808051906020019092919050505014610b63576040517f08c379a00000000000000000000000000000000000000000000000000000000081526004018080602001828103825260248152602001806123126024913960400191505060405180910390fd5b600160008373ffffffffffffffffffffffffffffffffffffffff1673ffffffffffffffffffffffffffffffffffffffff1681526020019081526020016000206002018054600181600116156101000203166002900480601f016020809104026020016040519081016040528092919081815260200182805460018160011615610100020316600290048015610c395780601f10610c0e57610100808354040283529160200191610c39565b820191906000526020600020905b815481529060010190602001808311610c1c57829003601f168201915b50505050509050919050565b60608060008360011515600160008373ffffffffffffffffffffffffffffffffffffffff1673ffffffffffffffffffffffffffffffffffffffff16815260200190815260200160002060030160009054906101000a900460ff1615151480610f5d575060001515610d9f600160008473ffffffffffffffffffffffffffffffffffffffff1673ffffffffffffffffffffffffffffffffffffffff1681526020019081526020016000206002018054600181600116156101000203166002900480601f016020809104026020016040519081016040528092919081815260200182805460018160011615610100020316600290048015610d855780601f10610d5a57610100808354040283529160200191610d85565b820191906000526020600020905b815481529060010190602001808311610d6857829003601f168201915b505050505060405180602001604052806000815250612151565b1515148015610f5c57503273ffffffffffffffffffffffffffffffffffffffff168173ffffffffffffffffffffffffffffffffffffffff161480610f5b57506000809054906101000a900473ffffffffffffffffffffffffffffffffffffffff1673ffffffffffffffffffffffffffffffffffffffff166346fb5b9c6040518163ffffffff1660e01b815260040160206040518083038186803b158015610e4557600080fd5b505afa158015610e59573d6000803e3d6000fd5b505050506040513d6020811015610e6f57600080fd5b81019080805190602001909291905050506000809054906101000a900473ffffffffffffffffffffffffffffffffffffffff1673ffffffffffffffffffffffffffffffffffffffff166344276733326040518263ffffffff1660e01b8152600401808273ffffffffffffffffffffffffffffffffffffffff1673ffffffffffffffffffffffffffffffffffffffff16815260200191505060206040518083038186803b158015610f1e57600080fd5b505afa158015610f32573d6000803e3d6000fd5b505050506040513d6020811015610f4857600080fd5b8101908080519060200190929190505050145b5b5b610fcf576040517f08c379a00000000000000000000000000000000000000000000000000000000081526004018080602001828103825260128152602001807f556e617574686f7269736564206163746f72000000000000000000000000000081525060200191505060405180910390fd5b600160008673ffffffffffffffffffffffffffffffffffffffff1673ffffffffffffffffffffffffffffffffffffffff168152602001908152602001600020600001600160008773ffffffffffffffffffffffffffffffffffffffff1673ffffffffffffffffffffffffffffffffffffffff168152602001908152602001600020600101600160008873ffffffffffffffffffffffffffffffffffffffff1673ffffffffffffffffffffffffffffffffffffffff16815260200190815260200160002060030160009054906101000a900460ff16828054600181600116156101000203166002900480601f0160208091040260200160405190810160405280929190818152602001828054600181600116156101000203166002900480156111385780601f1061110d57610100808354040283529160200191611138565b820191906000526020600020905b81548152906001019060200180831161111b57829003601f168201915b50505050509250818054600181600116156101000203166002900480601f0160208091040260200160405190810160405280929190818152602001828054600181600116156101000203166002900480156111d45780601f106111a9576101008083540402835291602001916111d4565b820191906000526020600020905b8154815290600101906020018083116111b757829003601f168201915b50505050509150935093509350509193909250565b60008060009054906101000a900473ffffffffffffffffffffffffffffffffffffffff1673ffffffffffffffffffffffffffffffffffffffff166346fb5b9c6040518163ffffffff1660e01b815260040160206040518083038186803b15801561125257600080fd5b505afa158015611266573d6000803e3d6000fd5b505050506040513d602081101561127c57600080fd5b81019080805190602001909291905050506000809054906101000a900473ffffffffffffffffffffffffffffffffffffffff1673ffffffffffffffffffffffffffffffffffffffff166344276733326040518263ffffffff1660e01b8152600401808273ffffffffffffffffffffffffffffffffffffffff1673ffffffffffffffffffffffffffffffffffffffff16815260200191505060206040518083038186803b15801561132b57600080fd5b505afa15801561133f573d6000803e3d6000fd5b505050506040513d602081101561135557600080fd5b8101908080519060200190929190505050146113bc576040517f08c379a00000000000000000000000000000000000000000000000000000000081526004018080602001828103825260248152602001806123126024913960400191505060405180910390fd5b600382815481106113c957fe5b9060005260206000200160009054906101000a900473ffffffffffffffffffffffffffffffffffffffff169050919050565b60606000809054906101000a900473ffffffffffffffffffffffffffffffffffffffff1673ffffffffffffffffffffffffffffffffffffffff166346fb5b9c6040518163ffffffff1660e01b815260040160206040518083038186803b15801561146457600080fd5b505afa158015611478573d6000803e3d6000fd5b505050506040513d602081101561148e57600080fd5b81019080805190602001909291905050506000809054906101000a900473ffffffffffffffffffffffffffffffffffffffff1673ffffffffffffffffffffffffffffffffffffffff166344276733326040518263ffffffff1660e01b8152600401808273ffffffffffffffffffffffffffffffffffffffff1673ffffffffffffffffffffffffffffffffffffffff16815260200191505060206040518083038186803b15801561153d57600080fd5b505afa158015611551573d6000803e3d6000fd5b505050506040513d602081101561156757600080fd5b8101908080519060200190929190505050146115ce576040517f08c379a00000000000000000000000000000000000000000000000000000000081526004018080602001828103825260248152602001806123126024913960400191505060405180910390fd5b600380548060200260200160405190810160405280929190818152602001828054801561165057602002820191906000526020600020905b8160009054906101000a900473ffffffffffffffffffffffffffffffffffffffff1673ffffffffffffffffffffffffffffffffffffffff1681526020019060010190808311611606575b5050505050905090565b6001602052806000526040600020600091509050806000018054600181600116156101000203166002900480601f0160208091040260200160405190810160405280929190818152602001828054600181600116156101000203166002900480156117065780601f106116db57610100808354040283529160200191611706565b820191906000526020600020905b8154815290600101906020018083116116e957829003601f168201915b505050505090806001018054600181600116156101000203166002900480601f0160208091040260200160405190810160405280929190818152602001828054600181600116156101000203166002900480156117a45780601f10611779576101008083540402835291602001916117a4565b820191906000526020600020905b81548152906001019060200180831161178757829003601f168201915b505050505090806002018054600181600116156101000203166002900480601f0160208091040260200160405190810160405280929190818152602001828054600181600116156101000203166002900480156118425780601f1061181757610100808354040283529160200191611842565b820191906000526020600020905b81548152906001019060200180831161182557829003601f168201915b5050505050908060030160009054906101000a900460ff16905084565b6000600280549050905090565b6003818154811061187957fe5b906000526020600020016000915054906101000a900473ffffffffffffffffffffffffffffffffffffffff1681565b6000600160003273ffffffffffffffffffffffffffffffffffffffff1673ffffffffffffffffffffffffffffffffffffffff168152602001908152602001600020905083816000019080519060200190611903929190612240565b508281600101908051906020019061191c929190612240565b5081816002019080519060200190611935929190612240565b5060008160030160006101000a81548160ff02191690831515021790555060033290806001815401808255809150509060018203906000526020600020016000909192909190916101000a81548173ffffffffffffffffffffffffffffffffffffffff021916908373ffffffffffffffffffffffffffffffffffffffff1602179055505050505050565b6000600282815481106119ce57fe5b9060005260206000200160009054906101000a900473ffffffffffffffffffffffffffffffffffffffff169050919050565b60008060009054906101000a900473ffffffffffffffffffffffffffffffffffffffff1673ffffffffffffffffffffffffffffffffffffffff166346fb5b9c6040518163ffffffff1660e01b815260040160206040518083038186803b158015611a6957600080fd5b505afa158015611a7d573d6000803e3d6000fd5b505050506040513d6020811015611a9357600080fd5b81019080805190602001909291905050506000809054906101000a900473ffffffffffffffffffffffffffffffffffffffff1673ffffffffffffffffffffffffffffffffffffffff166344276733326040518263ffffffff1660e01b8152600401808273ffffffffffffffffffffffffffffffffffffffff1673ffffffffffffffffffffffffffffffffffffffff16815260200191505060206040518083038186803b158015611b4257600080fd5b505afa158015611b56573d6000803e3d6000fd5b505050506040513d6020811015611b6c57600080fd5b810190808051906020019092919050505014611bd3576040517f08c379a00000000000000000000000000000000000000000000000000000000081526004018080602001828103825260248152602001806123126024913960400191505060405180910390fd5b600380549050905090565b6000809054906101000a900473ffffffffffffffffffffffffffffffffffffffff1673ffffffffffffffffffffffffffffffffffffffff166346fb5b9c6040518163ffffffff1660e01b815260040160206040518083038186803b158015611c4557600080fd5b505afa158015611c59573d6000803e3d6000fd5b505050506040513d6020811015611c6f57600080fd5b81019080805190602001909291905050506000809054906101000a900473ffffffffffffffffffffffffffffffffffffffff1673ffffffffffffffffffffffffffffffffffffffff166344276733326040518263ffffffff1660e01b8152600401808273ffffffffffffffffffffffffffffffffffffffff1673ffffffffffffffffffffffffffffffffffffffff16815260200191505060206040518083038186803b158015611d1e57600080fd5b505afa158015611d32573d6000803e3d6000fd5b505050506040513d6020811015611d4857600080fd5b810190808051906020019092919050505014611daf576040517f08c379a00000000000000000000000000000000000000000000000000000000081526004018080602001828103825260248152602001806123126024913960400191505060405180910390fd5b60008090505b60038054905081101561214d578173ffffffffffffffffffffffffffffffffffffffff1660038281548110611de657fe5b9060005260206000200160009054906101000a900473ffffffffffffffffffffffffffffffffffffffff1673ffffffffffffffffffffffffffffffffffffffff16141561214057600360016003805490500381548110611e4257fe5b9060005260206000200160009054906101000a900473ffffffffffffffffffffffffffffffffffffffff1660038281548110611e7a57fe5b9060005260206000200160006101000a81548173ffffffffffffffffffffffffffffffffffffffff021916908373ffffffffffffffffffffffffffffffffffffffff160217905550600360016003805490500381548110611ed757fe5b9060005260206000200160006101000a81549073ffffffffffffffffffffffffffffffffffffffff021916905560018060008473ffffffffffffffffffffffffffffffffffffffff1673ffffffffffffffffffffffffffffffffffffffff16815260200190815260200160002060030160006101000a81548160ff0219169083151502179055506000809054906101000a900473ffffffffffffffffffffffffffffffffffffffff1673ffffffffffffffffffffffffffffffffffffffff16637fde1c8a836000809054906101000a900473ffffffffffffffffffffffffffffffffffffffff1673ffffffffffffffffffffffffffffffffffffffff1663f7b8d4846040518163ffffffff1660e01b815260040160206040518083038186803b15801561200357600080fd5b505afa158015612017573d6000803e3d6000fd5b505050506040513d602081101561202d57600080fd5b81019080805190602001909291905050506040518363ffffffff1660e01b8152600401808373ffffffffffffffffffffffffffffffffffffffff1673ffffffffffffffffffffffffffffffffffffffff16815260200182815260200192505050600060405180830381600087803b1580156120a757600080fd5b505af11580156120bb573d6000803e3d6000fd5b5050505060038054809190600190036120d491906122c0565b5060028290806001815401808255809150509060018203906000526020600020016000909192909190916101000a81548173ffffffffffffffffffffffffffffffffffffffff021916908373ffffffffffffffffffffffffffffffffffffffff1602179055505061214d565b8080600101915050611db5565b5050565b6000816040516020018082805190602001908083835b6020831061218a5780518252602082019150602081019050602083039250612167565b6001836020036101000a03801982511681845116808217855250505050505090500191505060405160208183030381529060405280519060200120836040516020018082805190602001908083835b602083106121fc57805182526020820191506020810190506020830392506121d9565b6001836020036101000a0380198251168184511680821785525050505050509050019150506040516020818303038152906040528051906020012014905092915050565b828054600181600116156101000203166002900490600052602060002090601f016020900481019282601f1061228157805160ff19168380011785556122af565b828001600101855582156122af579182015b828111156122ae578251825591602001919060010190612293565b5b5090506122bc91906122ec565b5090565b8154818355818111156122e7578183600052602060002091820191016122e691906122ec565b5b505050565b61230e91905b8082111561230a5760008160009055506001016122f2565b5090565b9056fe4f6e6c7920676f7665726e6d656e74206f6666696369616c732063616e20616363657373a265627a7a7231582071d8bc4c59f6708735552c068521387582363dfdf5309529c4321281a4e3f0f764736f6c63430005100032",
  "source": "// SPDX-License-Identifier: GPL-3.0\r\npragma solidity ^0.5.16;\r\nimport \"./Roles.sol\";\r\nimport \"./HelperMethods.sol\";\r\n\r\ncontract RetailerContract {\r\n    Roles public rc;\r\n\r\n    constructor(address _address) public {\r\n        rc = Roles(_address);\r\n    }\r\n\r\n    struct Retailer {\r\n        string name;\r\n        string contact;\r\n        string hash;\r\n        bool isEligible;\r\n    }\r\n\r\n    mapping(address => Retailer) public retailers;\r\n    address[] public retailerAccounts;\r\n    address[] public unverifiedRetailerAccounts;\r\n\r\n    modifier onlyGovernmentOfficial() {\r\n        require(\r\n            rc.getRole(tx.origin) == rc.governmentID(),\r\n            \"Only government officials can access\"\r\n        );\r\n        _;\r\n    }\r\n\r\n    modifier onlyAuthorisedActors(address _address) {\r\n        require(\r\n            retailers[_address].isEligible == true ||\r\n                (HelperMethods.compareStrings(retailers[_address].hash, \"\") ==\r\n                    false &&\r\n                    (_address == tx.origin ||\r\n                        rc.getRole(tx.origin) == rc.governmentID())),\r\n            \"Unauthorised actor\"\r\n        );\r\n        _;\r\n    }\r\n\r\n    function addRetailer(\r\n        string memory _name,\r\n        string memory _contact,\r\n        string memory _hash\r\n    ) public {\r\n        Retailer storage retailer = retailers[tx.origin];\r\n        retailer.name = _name;\r\n        retailer.contact = _contact;\r\n        retailer.hash = _hash;\r\n        retailer.isEligible = false;\r\n\r\n        unverifiedRetailerAccounts.push(tx.origin);\r\n    }\r\n\r\n    function getRetailer(\r\n        address _address\r\n    )\r\n        public\r\n        view\r\n        onlyAuthorisedActors(_address)\r\n        returns (string memory _name, string memory _contact, bool _isEligible)\r\n    {\r\n        return (\r\n            retailers[_address].name,\r\n            retailers[_address].contact,\r\n            retailers[_address].isEligible\r\n        );\r\n    }\r\n\r\n    function getUnverifiedRetailerAccounts()\r\n        public\r\n        view\r\n        onlyGovernmentOfficial\r\n        returns (address[] memory)\r\n    {\r\n        return unverifiedRetailerAccounts;\r\n    }\r\n\r\n    function getNumUnverifiedRetailers()\r\n        public\r\n        view\r\n        onlyGovernmentOfficial\r\n        returns (uint256)\r\n    {\r\n        return unverifiedRetailerAccounts.length;\r\n    }\r\n\r\n    function getUnverifiedRetailer(\r\n        uint256 pos\r\n    ) public view onlyGovernmentOfficial returns (address) {\r\n        return unverifiedRetailerAccounts[pos];\r\n    }\r\n\r\n    function countRetailers() public view returns (uint256) {\r\n        return retailerAccounts.length;\r\n    }\r\n\r\n    function getNumRetailer(uint256 pos) public view returns (address) {\r\n        return retailerAccounts[pos];\r\n    }\r\n\r\n    function getHash(\r\n        address _address\r\n    ) public view onlyGovernmentOfficial returns (string memory) {\r\n        return retailers[_address].hash;\r\n    }\r\n\r\n    function setEligible(address _address) public onlyGovernmentOfficial {\r\n        for (uint256 i = 0; i < unverifiedRetailerAccounts.length; i++) {\r\n            if (unverifiedRetailerAccounts[i] == _address) {\r\n                unverifiedRetailerAccounts[i] = unverifiedRetailerAccounts[\r\n                    unverifiedRetailerAccounts.length - 1\r\n                ];\r\n                delete unverifiedRetailerAccounts[\r\n                    unverifiedRetailerAccounts.length - 1\r\n                ];\r\n                retailers[_address].isEligible = true;\r\n                rc.addRole(_address, rc.retailerRoleID());\r\n                unverifiedRetailerAccounts.length--;\r\n                retailerAccounts.push(_address);\r\n                break;\r\n            }\r\n        }\r\n    }\r\n}\r\n",
  "sourcePath": "D:\\btp\\Mobifind\\src\\contracts\\RetailerContract.sol",
  "compiler": {
    "name": "solc",
    "version": "0.5.16+commit.9c3226ce.Emscripten.clang"
  },
  "schemaVersion": "3.4.16",
  "updatedAt": "2024-05-07T07:39:12.966Z",
  "networkType": "ethereum",
  "devdoc": {
    "methods": {}
  },
  "userdoc": {
    "methods": {}
  }
}