{
  "contractName": "Roles",
  "abi": [
    {
      "constant": true,
      "inputs": [],
      "name": "distributorRoleID",
      "outputs": [
        {
          "internalType": "uint256",
          "name": "",
          "type": "uint256"
        }
      ],
      "payable": false,
      "stateMutability": "view",
      "type": "function"
    },
    {
      "constant": true,
      "inputs": [],
      "name": "governmentID",
      "outputs": [
        {
          "internalType": "uint256",
          "name": "",
          "type": "uint256"
        }
      ],
      "payable": false,
      "stateMutability": "view",
      "type": "function"
    },
    {
      "constant": true,
      "inputs": [],
      "name": "manufacturerRoleID",
      "outputs": [
        {
          "internalType": "uint256",
          "name": "",
          "type": "uint256"
        }
      ],
      "payable": false,
      "stateMutability": "view",
      "type": "function"
    },
    {
      "constant": true,
      "inputs": [],
      "name": "retailerRoleID",
      "outputs": [
        {
          "internalType": "uint256",
          "name": "",
          "type": "uint256"
        }
      ],
      "payable": false,
      "stateMutability": "view",
      "type": "function"
    },
    {
      "constant": true,
      "inputs": [
        {
          "internalType": "address",
          "name": "",
          "type": "address"
        }
      ],
      "name": "role",
      "outputs": [
        {
          "internalType": "uint256",
          "name": "roleID",
          "type": "uint256"
        },
        {
          "internalType": "bool",
          "name": "roleSet",
          "type": "bool"
        }
      ],
      "payable": false,
      "stateMutability": "view",
      "type": "function"
    },
    {
      "constant": true,
      "inputs": [],
      "name": "serviceProviderRoleID",
      "outputs": [
        {
          "internalType": "uint256",
          "name": "",
          "type": "uint256"
        }
      ],
      "payable": false,
      "stateMutability": "view",
      "type": "function"
    },
    {
      "constant": true,
      "inputs": [],
      "name": "userRoleID",
      "outputs": [
        {
          "internalType": "uint256",
          "name": "",
          "type": "uint256"
        }
      ],
      "payable": false,
      "stateMutability": "view",
      "type": "function"
    },
    {
      "constant": false,
      "inputs": [
        {
          "internalType": "address",
          "name": "_address",
          "type": "address"
        },
        {
          "internalType": "uint256",
          "name": "_RoleID",
          "type": "uint256"
        }
      ],
      "name": "addRole",
      "outputs": [],
      "payable": false,
      "stateMutability": "nonpayable",
      "type": "function"
    },
    {
      "constant": true,
      "inputs": [
        {
          "internalType": "address",
          "name": "_address",
          "type": "address"
        }
      ],
      "name": "getRole",
      "outputs": [
        {
          "internalType": "uint256",
          "name": "",
          "type": "uint256"
        }
      ],
      "payable": false,
      "stateMutability": "view",
      "type": "function"
    },
    {
      "constant": false,
      "inputs": [
        {
          "internalType": "address",
          "name": "_address",
          "type": "address"
        }
      ],
      "name": "deleteRole",
      "outputs": [],
      "payable": false,
      "stateMutability": "nonpayable",
      "type": "function"
    }
  ],
  "bytecode": "0x608060405234801561001057600080fd5b5061055f806100206000396000f3fe608060405234801561001057600080fd5b506004361061009e5760003560e01c80637fde1c8a116100665780637fde1c8a14610199578063946fe3ab146101e7578063d590f8c914610205578063d73231db14610268578063f7b8d484146102865761009e565b8063121da33c146100a3578063256898f2146100c157806344276733146100df57806346fb5b9c1461013757806354b025c514610155575b600080fd5b6100ab6102a4565b6040518082815260200191505060405180910390f35b6100c96102a9565b6040518082815260200191505060405180910390f35b610121600480360360208110156100f557600080fd5b81019080803573ffffffffffffffffffffffffffffffffffffffff1690602001909291905050506102ae565b6040518082815260200191505060405180910390f35b61013f61035e565b6040518082815260200191505060405180910390f35b6101976004803603602081101561016b57600080fd5b81019080803573ffffffffffffffffffffffffffffffffffffffff169060200190929190505050610363565b005b6101e5600480360360408110156101af57600080fd5b81019080803573ffffffffffffffffffffffffffffffffffffffff16906020019092919080359060200190929190505050610407565b005b6101ef6104ea565b6040518082815260200191505060405180910390f35b6102476004803603602081101561021b57600080fd5b81019080803573ffffffffffffffffffffffffffffffffffffffff1690602001909291905050506104ef565b60405180838152602001821515151581526020019250505060405180910390f35b610270610520565b6040518082815260200191505060405180910390f35b61028e610525565b6040518082815260200191505060405180910390f35b600281565b600581565b6000600115156000808473ffffffffffffffffffffffffffffffffffffffff1673ffffffffffffffffffffffffffffffffffffffff16815260200190815260200160002060010160009054906101000a900460ff1615151415610354576000808373ffffffffffffffffffffffffffffffffffffffff1673ffffffffffffffffffffffffffffffffffffffff168152602001908152602001600020600001549050610359565b600090505b919050565b600681565b60008060008373ffffffffffffffffffffffffffffffffffffffff1673ffffffffffffffffffffffffffffffffffffffff16815260200190815260200160002060010160006101000a81548160ff02191690831515021790555060008060008373ffffffffffffffffffffffffffffffffffffffff1673ffffffffffffffffffffffffffffffffffffffff1681526020019081526020016000206000018190555050565b600015156000808473ffffffffffffffffffffffffffffffffffffffff1673ffffffffffffffffffffffffffffffffffffffff16815260200190815260200160002060010160009054906101000a900460ff16151514156104e6576040518060400160405280828152602001600115158152506000808473ffffffffffffffffffffffffffffffffffffffff1673ffffffffffffffffffffffffffffffffffffffff1681526020019081526020016000206000820151816000015560208201518160010160006101000a81548160ff0219169083151502179055509050505b5050565b600181565b60006020528060005260406000206000915090508060000154908060010160009054906101000a900460ff16905082565b600481565b60038156fea265627a7a7231582081f25209109a49d591d5161faf60728ce9a309febb17a55a6593c7a209db01e664736f6c63430005100032",
  "source": "pragma solidity ^0.5.16;\r\n\r\ncontract Roles {\r\n    uint256 public constant manufacturerRoleID = 1;\r\n    uint256 public constant distributorRoleID = 2;\r\n    uint256 public constant retailerRoleID = 3;\r\n    uint256 public constant userRoleID = 4;\r\n    uint256 public constant serviceProviderRoleID = 5;\r\n    uint256 public constant governmentID = 6;\r\n\r\n    struct Role {\r\n        uint256 roleID;\r\n        bool roleSet;\r\n    }\r\n\r\n    mapping(address => Role) public role;\r\n\r\n    function addRole(address _address, uint256 _RoleID) public {\r\n        if (role[_address].roleSet == false)\r\n            role[_address] = Role(_RoleID, true);\r\n    }\r\n\r\n    function getRole(address _address) public view returns (uint256) {\r\n        if (role[_address].roleSet == true) return role[_address].roleID;\r\n        else return 0;\r\n    }\r\n\r\n    function deleteRole(address _address) public {\r\n        role[_address].roleSet = false;\r\n        role[_address].roleID = 0;\r\n    }\r\n}\r\n",
  "sourcePath": "D:\\btp\\Mobifind\\src\\contracts\\Roles.sol",
  "compiler": {
    "name": "solc",
    "version": "0.5.16+commit.9c3226ce.Emscripten.clang"
  },
  "schemaVersion": "3.4.16",
  "updatedAt": "2024-05-07T07:39:12.953Z",
  "networkType": "ethereum",
  "devdoc": {
    "methods": {}
  },
  "userdoc": {
    "methods": {}
  }
}