{
  "contractName": "SupplyChain",
  "abi": [
    {
      "constant": true,
      "inputs": [
        {
          "internalType": "uint256",
          "name": "",
          "type": "uint256"
        }
      ],
      "name": "blockedImeis",
      "outputs": [
        {
          "internalType": "uint256",
          "name": "",
          "type": "uint256"
        }
      ],
      "payable": false,
      "stateMutability": "view",
      "type": "function"
    },
    {
      "constant": true,
      "inputs": [
        {
          "internalType": "string",
          "name": "",
          "type": "string"
        }
      ],
      "name": "products",
      "outputs": [
        {
          "internalType": "string",
          "name": "id",
          "type": "string"
        },
        {
          "internalType": "uint256",
          "name": "imei1",
          "type": "uint256"
        },
        {
          "internalType": "uint256",
          "name": "imei2",
          "type": "uint256"
        },
        {
          "internalType": "address",
          "name": "ownerID",
          "type": "address"
        },
        {
          "internalType": "address",
          "name": "manufacturerID",
          "type": "address"
        },
        {
          "internalType": "address",
          "name": "distributorID",
          "type": "address"
        },
        {
          "internalType": "address",
          "name": "retailerID",
          "type": "address"
        },
        {
          "internalType": "bool",
          "name": "isValid",
          "type": "bool"
        },
        {
          "internalType": "bool",
          "name": "isBlocked",
          "type": "bool"
        },
        {
          "internalType": "string",
          "name": "reason",
          "type": "string"
        }
      ],
      "payable": false,
      "stateMutability": "view",
      "type": "function"
    },
    {
      "constant": true,
      "inputs": [
        {
          "internalType": "address",
          "name": "",
          "type": "address"
        },
        {
          "internalType": "uint256",
          "name": "",
          "type": "uint256"
        }
      ],
      "name": "productsByManufacturer",
      "outputs": [
        {
          "internalType": "string",
          "name": "",
          "type": "string"
        }
      ],
      "payable": false,
      "stateMutability": "view",
      "type": "function"
    },
    {
      "constant": true,
      "inputs": [],
      "name": "rc",
      "outputs": [
        {
          "internalType": "contract Roles",
          "name": "",
          "type": "address"
        }
      ],
      "payable": false,
      "stateMutability": "view",
      "type": "function"
    },
    {
      "constant": false,
      "inputs": [
        {
          "internalType": "uint256",
          "name": "imei",
          "type": "uint256"
        }
      ],
      "name": "checkImeiValidity",
      "outputs": [
        {
          "internalType": "bool",
          "name": "",
          "type": "bool"
        }
      ],
      "payable": false,
      "stateMutability": "nonpayable",
      "type": "function"
    },
    {
      "constant": false,
      "inputs": [
        {
          "internalType": "string",
          "name": "_id",
          "type": "string"
        },
        {
          "internalType": "uint256",
          "name": "_imei1",
          "type": "uint256"
        },
        {
          "internalType": "uint256",
          "name": "_imei2",
          "type": "uint256"
        }
      ],
      "name": "registerProduct",
      "outputs": [],
      "payable": false,
      "stateMutability": "nonpayable",
      "type": "function"
    },
    {
      "constant": true,
      "inputs": [
        {
          "internalType": "address",
          "name": "_address",
          "type": "address"
        }
      ],
      "name": "getProductCount",
      "outputs": [
        {
          "internalType": "uint256",
          "name": "",
          "type": "uint256"
        }
      ],
      "payable": false,
      "stateMutability": "view",
      "type": "function"
    },
    {
      "constant": true,
      "inputs": [
        {
          "internalType": "address",
          "name": "_address",
          "type": "address"
        }
      ],
      "name": "getProducts",
      "outputs": [
        {
          "internalType": "string[]",
          "name": "",
          "type": "string[]"
        }
      ],
      "payable": false,
      "stateMutability": "view",
      "type": "function"
    },
    {
      "constant": false,
      "inputs": [
        {
          "internalType": "string",
          "name": "_id",
          "type": "string"
        }
      ],
      "name": "getDetails",
      "outputs": [
        {
          "internalType": "uint256",
          "name": "",
          "type": "uint256"
        },
        {
          "internalType": "uint256",
          "name": "",
          "type": "uint256"
        },
        {
          "internalType": "address",
          "name": "",
          "type": "address"
        },
        {
          "internalType": "address",
          "name": "",
          "type": "address"
        },
        {
          "internalType": "bool",
          "name": "",
          "type": "bool"
        },
        {
          "internalType": "bool",
          "name": "",
          "type": "bool"
        },
        {
          "internalType": "string",
          "name": "",
          "type": "string"
        }
      ],
      "payable": false,
      "stateMutability": "nonpayable",
      "type": "function"
    },
    {
      "constant": false,
      "inputs": [
        {
          "internalType": "string",
          "name": "_productID",
          "type": "string"
        },
        {
          "internalType": "string",
          "name": "_reason",
          "type": "string"
        }
      ],
      "name": "blockProduct",
      "outputs": [],
      "payable": false,
      "stateMutability": "nonpayable",
      "type": "function"
    },
    {
      "constant": false,
      "inputs": [
        {
          "internalType": "string",
          "name": "_productID",
          "type": "string"
        },
        {
          "internalType": "string",
          "name": "_reason",
          "type": "string"
        }
      ],
      "name": "unblockProduct",
      "outputs": [],
      "payable": false,
      "stateMutability": "nonpayable",
      "type": "function"
    },
    {
      "constant": false,
      "inputs": [
        {
          "internalType": "uint256",
          "name": "_imei",
          "type": "uint256"
        }
      ],
      "name": "removeImei",
      "outputs": [],
      "payable": false,
      "stateMutability": "nonpayable",
      "type": "function"
    },
    {
      "constant": false,
      "inputs": [
        {
          "internalType": "string",
          "name": "_id",
          "type": "string"
        },
        {
          "internalType": "address",
          "name": "_address",
          "type": "address"
        }
      ],
      "name": "transferOwner",
      "outputs": [],
      "payable": false,
      "stateMutability": "nonpayable",
      "type": "function"
    }
  ],
  "bytecode": "0x608060405234801561001057600080fd5b506123c9806100206000396000f3fe608060405234801561001057600080fd5b50600436106100cf5760003560e01c80633e3faf311161008c578063dc5ed5ac11610066578063dc5ed5ac14610259578063e1feb2f214610275578063f20f8e41146102a5578063f33e5a16146102c1576100cf565b80633e3faf31146101dd57806350208eee146101f9578063c078ca9814610229576100cf565b80630186a423146100d45780630454a9df1461010d57806305b2d2581461013d57806312f77332146101595780631328fd8f146101775780631691473c146101ad575b600080fd5b6100ee60048036036100e99190810190611a8a565b6102dd565b6040516101049a99989796959493929190611fc7565b60405180910390f35b61012760048036036101229190810190611c33565b610511565b60405161013491906120d1565b60405180910390f35b61015760048036036101529190810190611b0c565b610532565b005b610161610596565b60405161016e9190611f8a565b60405180910390f35b610191600480360361018c9190810190611acb565b6105bb565b6040516101a497969594939291906120ec565b60405180910390f35b6101c760048036036101c29190810190611a25565b6107c2565b6040516101d49190611f4d565b60405180910390f35b6101f760048036036101f29190810190611b60565b610a73565b005b610213600480360361020e9190810190611a25565b610bef565b60405161022091906120d1565b60405180910390f35b610243600480360361023e9190810190611a4e565b610dc4565b6040516102509190611fa5565b60405180910390f35b610273600480360361026e9190810190611c33565b610e8a565b005b61028f600480360361028a9190810190611c33565b610f46565b60405161029c9190611f6f565b60405180910390f35b6102bf60048036036102ba9190810190611bcc565b610fd5565b005b6102db60048036036102d69190810190611b60565b611608565b005b600181805160208101820180518482526020830160208501208183528095505050505050600091509050806000018054600181600116156101000203166002900480601f01602080910402602001604051908101604052809291908181526020018280546001816001161561010002031660029004801561039f5780601f106103745761010080835404028352916020019161039f565b820191906000526020600020905b81548152906001019060200180831161038257829003601f168201915b5050505050908060010154908060020154908060030160009054906101000a900473ffffffffffffffffffffffffffffffffffffffff16908060040160009054906101000a900473ffffffffffffffffffffffffffffffffffffffff16908060050160009054906101000a900473ffffffffffffffffffffffffffffffffffffffff16908060060160009054906101000a900473ffffffffffffffffffffffffffffffffffffffff16908060060160149054906101000a900460ff16908060060160159054906101000a900460ff1690806007018054600181600116156101000203166002900480601f0160208091040260200160405190810160405280929190818152602001828054600181600116156101000203166002900480156105075780601f106104dc57610100808354040283529160200191610507565b820191906000526020600020905b8154815290600101906020018083116104ea57829003601f168201915b505050505090508a565b6003818154811061051e57fe5b906000526020600020016000915090505481565b806001836040516105439190611f1b565b908152602001604051809103902060030160006101000a81548173ffffffffffffffffffffffffffffffffffffffff021916908373ffffffffffffffffffffffffffffffffffffffff1602179055505050565b6000809054906101000a900473ffffffffffffffffffffffffffffffffffffffff1681565b60008060008060008060606001886040516105d69190611f1b565b9081526020016040518091039020600101546001896040516105f89190611f1b565b90815260200160405180910390206002015460018a60405161061a9190611f1b565b908152602001604051809103902060040160009054906101000a900473ffffffffffffffffffffffffffffffffffffffff1660018b60405161065c9190611f1b565b908152602001604051809103902060030160009054906101000a900473ffffffffffffffffffffffffffffffffffffffff1660018c60405161069e9190611f1b565b908152602001604051809103902060060160149054906101000a900460ff1660018d6040516106cd9190611f1b565b908152602001604051809103902060060160159054906101000a900460ff1660018e6040516106fc9190611f1b565b9081526020016040518091039020600701808054600181600116156101000203166002900480601f0160208091040260200160405190810160405280929190818152602001828054600181600116156101000203166002900480156107a25780601f10610777576101008083540402835291602001916107a2565b820191906000526020600020905b81548152906001019060200180831161078557829003601f168201915b505050505090509650965096509650965096509650919395979092949650565b60606000809054906101000a900473ffffffffffffffffffffffffffffffffffffffff1673ffffffffffffffffffffffffffffffffffffffff1663946fe3ab6040518163ffffffff1660e01b815260040160206040518083038186803b15801561082b57600080fd5b505afa15801561083f573d6000803e3d6000fd5b505050506040513d601f19601f820116820180604052506108639190810190611c5c565b6000809054906101000a900473ffffffffffffffffffffffffffffffffffffffff1673ffffffffffffffffffffffffffffffffffffffff166344276733326040518263ffffffff1660e01b81526004016108bd9190611f32565b60206040518083038186803b1580156108d557600080fd5b505afa1580156108e9573d6000803e3d6000fd5b505050506040513d601f19601f8201168201806040525061090d9190810190611c5c565b1461094d576040517f08c379a0000000000000000000000000000000000000000000000000000000008152600401610944906120b1565b60405180910390fd5b600260008373ffffffffffffffffffffffffffffffffffffffff1673ffffffffffffffffffffffffffffffffffffffff168152602001908152602001600020805480602002602001604051908101604052809291908181526020016000905b82821015610a68578382906000526020600020018054600181600116156101000203166002900480601f016020809104026020016040519081016040528092919081815260200182805460018160011615610100020316600290048015610a545780601f10610a2957610100808354040283529160200191610a54565b820191906000526020600020905b815481529060010190602001808311610a3757829003601f168201915b5050505050815260200190600101906109ac565b505050509050919050565b600182604051610a839190611f1b565b908152602001604051809103902060060160159054906101000a900460ff1615610ae2576040517f08c379a0000000000000000000000000000000000000000000000000000000008152600401610ad990612071565b60405180910390fd5b60018083604051610af39190611f1b565b908152602001604051809103902060060160156101000a81548160ff02191690831515021790555080600183604051610b2c9190611f1b565b90815260200160405180910390206007019080519060200190610b5092919061173e565b506003600183604051610b639190611f1b565b90815260200160405180910390206001015490806001815401808255809150509060018203906000526020600020016000909192909190915055506003600183604051610bb09190611f1b565b90815260200160405180910390206002015490806001815401808255809150509060018203906000526020600020016000909192909190915055505050565b60008060009054906101000a900473ffffffffffffffffffffffffffffffffffffffff1673ffffffffffffffffffffffffffffffffffffffff1663946fe3ab6040518163ffffffff1660e01b815260040160206040518083038186803b158015610c5857600080fd5b505afa158015610c6c573d6000803e3d6000fd5b505050506040513d601f19601f82011682018060405250610c909190810190611c5c565b6000809054906101000a900473ffffffffffffffffffffffffffffffffffffffff1673ffffffffffffffffffffffffffffffffffffffff166344276733326040518263ffffffff1660e01b8152600401610cea9190611f32565b60206040518083038186803b158015610d0257600080fd5b505afa158015610d16573d6000803e3d6000fd5b505050506040513d601f19601f82011682018060405250610d3a9190810190611c5c565b14610d7a576040517f08c379a0000000000000000000000000000000000000000000000000000000008152600401610d71906120b1565b60405180910390fd5b600260008373ffffffffffffffffffffffffffffffffffffffff1673ffffffffffffffffffffffffffffffffffffffff168152602001908152602001600020805490509050919050565b60026020528160005260406000208181548110610ddd57fe5b90600052602060002001600091509150508054600181600116156101000203166002900480601f016020809104026020016040519081016040528092919081815260200182805460018160011615610100020316600290048015610e825780601f10610e5757610100808354040283529160200191610e82565b820191906000526020600020905b815481529060010190602001808311610e6557829003601f168201915b505050505081565b60008090505b600380549050811015610f42578160038281548110610eab57fe5b90600052602060002001541415610f3557600360016003805490500381548110610ed157fe5b906000526020600020015460038281548110610ee957fe5b9060005260206000200181905550600360016003805490500381548110610f0c57fe5b90600052602060002001600090556003805480919060019003610f2f91906117be565b50610f42565b8080600101915050610e90565b5050565b6000806000905060008390505b6000811115610fb0576009600a8281610f6857fe5b06111580610f8157506000600a8281610f7d57fe5b0610155b15610f93578180600101925050610f9e565b600092505050610fd0565b600a8181610fa857fe5b049050610f53565b50600f8163ffffffff161415610fca576001915050610fd0565b60009150505b919050565b610fdd6117ea565b600184604051610fed9190611f1b565b908152602001604051809103902060405180610140016040529081600082018054600181600116156101000203166002900480601f0160208091040260200160405190810160405280929190818152602001828054600181600116156101000203166002900480156110a05780601f10611075576101008083540402835291602001916110a0565b820191906000526020600020905b81548152906001019060200180831161108357829003601f168201915b5050505050815260200160018201548152602001600282015481526020016003820160009054906101000a900473ffffffffffffffffffffffffffffffffffffffff1673ffffffffffffffffffffffffffffffffffffffff1673ffffffffffffffffffffffffffffffffffffffff1681526020016004820160009054906101000a900473ffffffffffffffffffffffffffffffffffffffff1673ffffffffffffffffffffffffffffffffffffffff1673ffffffffffffffffffffffffffffffffffffffff1681526020016005820160009054906101000a900473ffffffffffffffffffffffffffffffffffffffff1673ffffffffffffffffffffffffffffffffffffffff1673ffffffffffffffffffffffffffffffffffffffff1681526020016006820160009054906101000a900473ffffffffffffffffffffffffffffffffffffffff1673ffffffffffffffffffffffffffffffffffffffff1673ffffffffffffffffffffffffffffffffffffffff1681526020016006820160149054906101000a900460ff161515151581526020016006820160159054906101000a900460ff16151515158152602001600782018054600181600116156101000203166002900480601f0160208091040260200160405190810160405280929190818152602001828054600181600116156101000203166002900480156112e45780601f106112b9576101008083540402835291602001916112e4565b820191906000526020600020905b8154815290600101906020018083116112c757829003601f168201915b5050505050815250509050838160000181905250828160200181815250508181604001818152505033816060019073ffffffffffffffffffffffffffffffffffffffff16908173ffffffffffffffffffffffffffffffffffffffff168152505033816080019073ffffffffffffffffffffffffffffffffffffffff16908173ffffffffffffffffffffffffffffffffffffffff168152505060018160e001901515908115158152505060008161010001901515908115158152505060405180602001604052806000815250816101200181905250806001856040516113c99190611f1b565b908152602001604051809103902060008201518160000190805190602001906113f3929190611899565b50602082015181600101556040820151816002015560608201518160030160006101000a81548173ffffffffffffffffffffffffffffffffffffffff021916908373ffffffffffffffffffffffffffffffffffffffff16021790555060808201518160040160006101000a81548173ffffffffffffffffffffffffffffffffffffffff021916908373ffffffffffffffffffffffffffffffffffffffff16021790555060a08201518160050160006101000a81548173ffffffffffffffffffffffffffffffffffffffff021916908373ffffffffffffffffffffffffffffffffffffffff16021790555060c08201518160060160006101000a81548173ffffffffffffffffffffffffffffffffffffffff021916908373ffffffffffffffffffffffffffffffffffffffff16021790555060e08201518160060160146101000a81548160ff0219169083151502179055506101008201518160060160156101000a81548160ff021916908315150217905550610120820151816007019080519060200190611582929190611899565b50905050600260003373ffffffffffffffffffffffffffffffffffffffff1673ffffffffffffffffffffffffffffffffffffffff16815260200190815260200160002084908060018154018082558091505090600182039060005260206000200160009091929091909150908051906020019061160092919061173e565b505050505050565b6001826040516116189190611f1b565b908152602001604051809103902060060160159054906101000a900460ff16611676576040517f08c379a000000000000000000000000000000000000000000000000000000000815260040161166d90612091565b60405180910390fd5b60006001836040516116889190611f1b565b908152602001604051809103902060060160156101000a81548160ff021916908315150217905550806001836040516116c19190611f1b565b908152602001604051809103902060070190805190602001906116e592919061173e565b506117106001836040516116f99190611f1b565b908152602001604051809103902060010154610e8a565b61173a6001836040516117239190611f1b565b908152602001604051809103902060020154610e8a565b5050565b828054600181600116156101000203166002900490600052602060002090601f016020900481019282601f1061177f57805160ff19168380011785556117ad565b828001600101855582156117ad579182015b828111156117ac578251825591602001919060010190611791565b5b5090506117ba9190611919565b5090565b8154818355818111156117e5578183600052602060002091820191016117e49190611919565b5b505050565b604051806101400160405280606081526020016000815260200160008152602001600073ffffffffffffffffffffffffffffffffffffffff168152602001600073ffffffffffffffffffffffffffffffffffffffff168152602001600073ffffffffffffffffffffffffffffffffffffffff168152602001600073ffffffffffffffffffffffffffffffffffffffff168152602001600015158152602001600015158152602001606081525090565b828054600181600116156101000203166002900490600052602060002090601f016020900481019282601f106118da57805160ff1916838001178555611908565b82800160010185558215611908579182015b828111156119075782518255916020019190600101906118ec565b5b5090506119159190611919565b5090565b61193b91905b8082111561193757600081600090555060010161191f565b5090565b90565b60008135905061194d81612358565b92915050565b600082601f83011261196457600080fd5b81356119776119728261218f565b612162565b9150808252602083016020830185838301111561199357600080fd5b61199e838284612305565b50505092915050565b600082601f8301126119b857600080fd5b81356119cb6119c6826121bb565b612162565b915080825260208301602083018583830111156119e757600080fd5b6119f2838284612305565b50505092915050565b600081359050611a0a8161236f565b92915050565b600081519050611a1f8161236f565b92915050565b600060208284031215611a3757600080fd5b6000611a458482850161193e565b91505092915050565b60008060408385031215611a6157600080fd5b6000611a6f8582860161193e565b9250506020611a80858286016119fb565b9150509250929050565b600060208284031215611a9c57600080fd5b600082013567ffffffffffffffff811115611ab657600080fd5b611ac284828501611953565b91505092915050565b600060208284031215611add57600080fd5b600082013567ffffffffffffffff811115611af757600080fd5b611b03848285016119a7565b91505092915050565b60008060408385031215611b1f57600080fd5b600083013567ffffffffffffffff811115611b3957600080fd5b611b45858286016119a7565b9250506020611b568582860161193e565b9150509250929050565b60008060408385031215611b7357600080fd5b600083013567ffffffffffffffff811115611b8d57600080fd5b611b99858286016119a7565b925050602083013567ffffffffffffffff811115611bb657600080fd5b611bc2858286016119a7565b9150509250929050565b600080600060608486031215611be157600080fd5b600084013567ffffffffffffffff811115611bfb57600080fd5b611c07868287016119a7565b9350506020611c18868287016119fb565b9250506040611c29868287016119fb565b9150509250925092565b600060208284031215611c4557600080fd5b6000611c53848285016119fb565b91505092915050565b600060208284031215611c6e57600080fd5b6000611c7c84828501611a10565b91505092915050565b6000611c918383611db4565b905092915050565b611ca2816122ab565b82525050565b611cb181612263565b82525050565b6000611cc2826121f7565b611ccc8185612225565b935083602082028501611cde856121e7565b8060005b85811015611d1a5784840389528151611cfb8582611c85565b9450611d0683612218565b925060208a01995050600181019050611ce2565b50829750879550505050505092915050565b611d3581612275565b82525050565b611d44816122bd565b82525050565b6000611d558261220d565b611d5f8185612247565b9350611d6f818560208601612314565b611d7881612347565b840191505092915050565b6000611d8e8261220d565b611d988185612258565b9350611da8818560208601612314565b80840191505092915050565b6000611dbf82612202565b611dc98185612236565b9350611dd9818560208601612314565b611de281612347565b840191505092915050565b6000611df882612202565b611e028185612247565b9350611e12818560208601612314565b611e1b81612347565b840191505092915050565b6000611e33601a83612247565b91507f70726f6475637420697320616c726561647920626c6f636b65640000000000006000830152602082019050919050565b6000611e73601683612247565b91507f70726f64756374206973206e6f7420626c6f636b6564000000000000000000006000830152602082019050919050565b6000611eb3602d83612247565b91507f4f6e6c7920746865206d616e7566616374757265722063616e20706572666f7260008301527f6d207468697320616374696f6e000000000000000000000000000000000000006020830152604082019050919050565b611f15816122a1565b82525050565b6000611f278284611d83565b915081905092915050565b6000602082019050611f476000830184611c99565b92915050565b60006020820190508181036000830152611f678184611cb7565b905092915050565b6000602082019050611f846000830184611d2c565b92915050565b6000602082019050611f9f6000830184611d3b565b92915050565b60006020820190508181036000830152611fbf8184611ded565b905092915050565b6000610140820190508181036000830152611fe2818d611ded565b9050611ff1602083018c611f0c565b611ffe604083018b611f0c565b61200b606083018a611ca8565b6120186080830189611ca8565b61202560a0830188611ca8565b61203260c0830187611ca8565b61203f60e0830186611d2c565b61204d610100830185611d2c565b8181036101208301526120608184611ded565b90509b9a5050505050505050505050565b6000602082019050818103600083015261208a81611e26565b9050919050565b600060208201905081810360008301526120aa81611e66565b9050919050565b600060208201905081810360008301526120ca81611ea6565b9050919050565b60006020820190506120e66000830184611f0c565b92915050565b600060e082019050612101600083018a611f0c565b61210e6020830189611f0c565b61211b6040830188611ca8565b6121286060830187611ca8565b6121356080830186611d2c565b61214260a0830185611d2c565b81810360c08301526121548184611d4a565b905098975050505050505050565b6000604051905081810181811067ffffffffffffffff8211171561218557600080fd5b8060405250919050565b600067ffffffffffffffff8211156121a657600080fd5b601f19601f8301169050602081019050919050565b600067ffffffffffffffff8211156121d257600080fd5b601f19601f8301169050602081019050919050565b6000819050602082019050919050565b600081519050919050565b600081519050919050565b600081519050919050565b6000602082019050919050565b600082825260208201905092915050565b600082825260208201905092915050565b600082825260208201905092915050565b600081905092915050565b600061226e82612281565b9050919050565b60008115159050919050565b600073ffffffffffffffffffffffffffffffffffffffff82169050919050565b6000819050919050565b60006122b6826122e1565b9050919050565b60006122c8826122cf565b9050919050565b60006122da82612281565b9050919050565b60006122ec826122f3565b9050919050565b60006122fe82612281565b9050919050565b82818337600083830152505050565b60005b83811015612332578082015181840152602081019050612317565b83811115612341576000848401525b50505050565b6000601f19601f8301169050919050565b61236181612263565b811461236c57600080fd5b50565b612378816122a1565b811461238357600080fd5b5056fea365627a7a72315820be5f5b7353a84ceb32494784f60b0140d440e516e30d8ce68fbfecfae64eeba26c6578706572696d656e74616cf564736f6c63430005100040",
  "source": "// SPDX-License-Identifier: GPL-3.0\r\npragma solidity ^0.5.16;\r\npragma experimental ABIEncoderV2;\r\n\r\nimport \"./Roles.sol\";\r\nimport \"./HelperMethods.sol\";\r\n\r\ncontract SupplyChain {\r\n    Roles public rc;\r\n\r\n    struct Product {\r\n        string id;\r\n        uint256 imei1;\r\n        uint256 imei2;\r\n        address ownerID;\r\n        address manufacturerID;\r\n        address distributorID;\r\n        address retailerID;\r\n        bool isValid;\r\n        bool isBlocked;\r\n        string reason;\r\n    }\r\n\r\n    mapping(string => Product) public products;\r\n    mapping(address => string[]) public productsByManufacturer;\r\n    uint256[] public blockedImeis;\r\n\r\n    modifier onlyManufacturer() {\r\n        require(\r\n            rc.getRole(tx.origin) == rc.manufacturerRoleID(),\r\n            \"Only the manufacturer can perform this action\"\r\n        );\r\n        _;\r\n    }\r\n\r\n    modifier onlyGovernment() {\r\n        require(\r\n            rc.getRole(tx.origin) == rc.governmentID(),\r\n            \"Only the government officials can perform this action\"\r\n        );\r\n        _;\r\n    }\r\n\r\n    modifier validImei(uint256 imei) {\r\n        require(checkImeiValidity(imei) == true, \"Invalid IMEI number\");\r\n        _;\r\n    }\r\n\r\n    modifier onlyAuthorisedActor(address _address, string memory _id) {\r\n        require(\r\n            products[_id].ownerID == _address && products[_id].isValid,\r\n            \"Not an authorized actor or product not found.\"\r\n        );\r\n        _;\r\n    }\r\n\r\n    function checkImeiValidity(uint256 imei) public returns (bool) {\r\n        uint32 count = 0;\r\n        for (uint256 i = imei; i > 0; i /= 10) {\r\n            if (i % 10 <= 9 || i % 10 >= 0) {\r\n                count++;\r\n            } else {\r\n                return false;\r\n            }\r\n        }\r\n        if (count == 15) return true;\r\n        else return false;\r\n    }\r\n\r\n    function registerProduct(\r\n        string memory _id,\r\n        uint256 _imei1,\r\n        uint256 _imei2\r\n    ) public {\r\n        // require(\r\n        //     rc.getRole(msg.sender) == rc.manufacturerRoleID(),\r\n        //     \"Only the manufacturer can perform this action\"\r\n        // );\r\n\r\n        Product memory product = products[_id];\r\n        product.id = _id;\r\n        product.imei1 = _imei1;\r\n        product.imei2 = _imei2;\r\n        product.ownerID = msg.sender;\r\n        product.manufacturerID = msg.sender;\r\n        product.isValid = true;\r\n        product.isBlocked = false;\r\n        product.reason = \"\";\r\n\r\n        products[_id] = product;\r\n        productsByManufacturer[msg.sender].push(_id);\r\n    }\r\n\r\n    function getProductCount(\r\n        address _address\r\n    ) public view onlyManufacturer returns (uint256) {\r\n        return productsByManufacturer[_address].length;\r\n    }\r\n\r\n    function getProducts(\r\n        address _address\r\n    ) public view onlyManufacturer returns (string[] memory) {\r\n        return productsByManufacturer[_address];\r\n    }\r\n\r\n    function getDetails(\r\n        string memory _id\r\n    )\r\n        public\r\n        returns (uint256, uint256, address, address, bool, bool, string memory)\r\n    {\r\n        return (\r\n            products[_id].imei1,\r\n            products[_id].imei2,\r\n            products[_id].manufacturerID,\r\n            products[_id].ownerID,\r\n            products[_id].isValid,\r\n            products[_id].isBlocked,\r\n            products[_id].reason\r\n        );\r\n    }\r\n\r\n    function blockProduct(\r\n        string memory _productID,\r\n        string memory _reason\r\n    ) public {\r\n        require(!products[_productID].isBlocked, \"product is already blocked\");\r\n        products[_productID].isBlocked = true;\r\n        products[_productID].reason = _reason;\r\n\r\n        blockedImeis.push(products[_productID].imei1);\r\n        blockedImeis.push(products[_productID].imei2);\r\n    }\r\n\r\n    // function unblockProduct(\r\n    //     string memory _productID,\r\n    //     string memory _reason\r\n    // ) public onlyAuthorisedActor(msg.sender, _productID) {\r\n    //     require(products[_productID].isBlocked, \"product is not blocked\");\r\n    //     products[_productID].isBlocked = false;\r\n    //     products[_productID].reason = _reason;\r\n    //     removeImei(products[_productID].imei1);\r\n    //     removeImei(products[_productID].imei2);\r\n    // }\r\n\r\n    function unblockProduct(\r\n        string memory _productID,\r\n        string memory _reason\r\n    ) public {\r\n        require(products[_productID].isBlocked, \"product is not blocked\");\r\n        products[_productID].isBlocked = false;\r\n        products[_productID].reason = _reason;\r\n        removeImei(products[_productID].imei1);\r\n        removeImei(products[_productID].imei2);\r\n    }\r\n\r\n    function removeImei(uint256 _imei) public {\r\n        for (uint256 i = 0; i < blockedImeis.length; i++) {\r\n            if (blockedImeis[i] == _imei) {\r\n                blockedImeis[i] = blockedImeis[blockedImeis.length - 1];\r\n                delete blockedImeis[blockedImeis.length - 1];\r\n                blockedImeis.length--;\r\n                break;\r\n            }\r\n        }\r\n    }\r\n\r\n    function transferOwner(string memory _id, address _address) public {\r\n        products[_id].ownerID = _address;\r\n    }\r\n}\r\n",
  "sourcePath": "D:\\btp\\Mobifind\\src\\contracts\\SupplyChain.sol",
  "compiler": {
    "name": "solc",
    "version": "0.5.16+commit.9c3226ce.Emscripten.clang"
  },
  "schemaVersion": "3.4.16",
  "updatedAt": "2024-05-07T07:39:12.987Z",
  "networkType": "ethereum",
  "devdoc": {
    "methods": {}
  },
  "userdoc": {
    "methods": {}
  }
}